:020000040000FA
:020000000029D5
:040002000034003492
:080008008B13AA00030EAB00EC
:100010008C1823200C181C200B1D0F2815202B0ECC
:100020008300AA0E2A0E8B1709000B1D0F2806301D
:1000300081000B1179210800CF308F0026308E000F
:100040000C10A30A080091018C10A40A08000F39B3
:1000500082073F3406345B344F3466346D347D346C
:1000600007347F346F3477347C3439345E347934F8
:020070007134E9
:100200008D2151215E216C21432183120313A3010F
:10021000A401A101A901A801051285120F293B2102
:1002200024212C2114210F290512851222181B29A3
:10023000051285161E29051685121E29221C222943
:10024000221408002210080024080A3C0319292956
:100250000800A20AA401080029080A3C0319312158
:100260000800A80AA9012808063C0319382108003B
:10027000A901A801080023080A3C03194029080025
:10028000A90AA30108008B178B160B118316031301
:100290000C148C14831203138B170B170C108C1077
:1002A00008008316031381128111011181140110BA
:1002B00083120313063081000B110800831203130D
:1002C000101390161016901190101014CF308F004C
:1002D00026308E000C10080083120313E7309200C2
:1002E00083160313F13092008312031391018C10D3
:1002F0000800081088102018822928082720870065
:100300008814872929082720870008148729201C9A
:100310008B292010080020140800831603130030D6
:100320008500831203138501831603178801890151
:10033000831603130030860083120313860183168D
:1003400003130030870083120313870183160313FE
:1003500000308800831203138801080000000000A9
:10036000000000000000000000000000000000008D
:0E037000000000000000000000000000080077
:02400E00D420BC
:02401000FF3F70
:00000001FF
