:020000040000FA
:020000000029D5
:040002000034003492
:100200008312031385018701860188018901831602
:100210000317880189018316031385013F30850088
:100220008701F03087008801F03088008601F030C7
:1002300086008312031385018901870189018312D6
:100240000313051C262905143A295C21851C2B293A
:1002500085143F295C21051D3029051544295621A7
:10026000851D352985154B295621851E1F29851683
:1002700051295C2105183A295C21870A1F29851814
:100280003F295C2187031F2956210519442956213E
:10029000880A56211F29562185194B2988031F29B1
:1002A0005C21851A5129860A1F295C213230A10060
:1002B0005C21A10B582908009630A000A00B5E29F4
:0202C000080034
:02400E00D420BC
:02401000FF3F70
:00000001FF
