:020000040000FA
:020000000029D5
:040002000034003492
:08000800A600030EA7000B1D6A
:1000100011283C3081000B11A40AA50AA30B031D73
:100020001128270E8300A60E260E09000F3982071D
:100030003F3406345B344F3466346D347D340734DA
:100040007F346F3477347C3439345E3479347134AE
:1002000083160313412162216F210330A1000829C5
:1002100012211A213A213121222122080602031932
:100220002A21082983120313051C08000518162922
:10023000A10A080083120313851C080085181E29D3
:10024000A103080024083C3C031927210800860A62
:10025000A40108008516A501251C2C2986018512FC
:1002600008000810210EA8000F302805162087006E
:100270008814080088100F30210516208700081404
:1002800008008316031303308500831203138501CE
:10029000831603178801890183160313FE30860035
:1002A0008312031386018316031300308700831221
:1002B000031387018316031300308800831203138E
:1002C000880108008316031381128111011581141E
:1002D000011083120313323081000B1108008B17B9
:0602E0008B160B11080053
:02400E00D420BC
:02401000FF3F70
:00000001FF
