:020000040000FA
:020000000029D5
:040002000034003492
:08000800A800030EA9000B1D66
:100010000F283C3081000B11A30B031D0F28290E64
:100020008300A80E280E09000F3982073F340634DA
:100030005B344F3466346D347D3407347F346F3431
:0C00400077347C3439345E347934713408
:100200008316031321214521522106290A211A218F
:100210001121062956219F149F180C291E088600BB
:10022000A1000813210EAA000F302A051420870010
:100230008817080088130F3021051420870008173D
:1002400008008316031300309F0083160313051460
:100250008316031708148312031343309F00831679
:1002600003130030860083120313860183160313E1
:1002700000308700831203138701831603130030B5
:100280008800831203138801080083160313811268
:100290008111011581140110831203133230810082
:1002A0000B1108008B178B160B11080000000000C3
:1002B000000000000000000000000000000000003E
:0202C000080034
:02400E00D420BC
:02401000FF3F70
:00000001FF
