:020000040000FA
:020000001228C4
:040002000034003492
:08000800A200030EA3000B1D72
:100010000D280B113D3081000B0A230E8300A20E28
:04002000220E0900A3
:0C00240026203C2039208312031305180D
:100030001C208518212017284920051C1C28870A08
:1000400017284920851821288803080083160313E0
:10005000033005088601870188018316031788018C
:100060008901831203138501860187018801A1019B
:1000700008008B178B160B11831603138112811145
:10008000011581140114831203133D3081000B11FB
:0A00900008009630A000A00B4B28DA
:02400E00D420BC
:02401000FF3F70
:00000001FF
