:020000040000FA
:020000000029D5
:040002000034003492
:10020000831603133D2161216E2106290B21302124
:1002100007181329062972219F149F180D291E08FB
:100220008600A400080072210716831203178316A4
:1002300003178C181929831224088D00031324082E
:1002400003178C0083168C130C1555308D00AA30C3
:100250008D008C148B170C118312031307120629BF
:1002600087168312031724088D0083168C130C1431
:1002700083120C0803138800080083160313003050
:100280009F008316031305148316031708148312A3
:10029000031343309F00831603130030860083123C
:1002A000031386018316031301308700831203139F
:1002B000870183160313003088008312031388011B
:1002C0000800831603138112811101158114011096
:1002D00083120313323081000B1108008B178B1629
:1002E0000B110800000000000000000000000000EA
:0A02F00000000000000000000800FC
:02400E00D420BC
:02401000FF3F70
:00000001FF
