:020000040000FA
:020000001228C4
:040002000034003492
:08000800CC00030ECB000B1924
:1000100020210C184C218C185D214B0E8300CC0E36
:040020004C0E090079
:0C0024008220C020CD20DB20E8208519C0
:1000300071286628552205181B28261486153A08AB
:10004000B3003908B4004008B5003F08B600851871
:10005000332005183920851D1F28552285192E2883
:10006000261086110800552285183428BF0AA121C0
:100070000800552205183A28B90AB121080055226E
:10008000851840282714861586144308B3004208B3
:10009000B4003208B5003108B60085185A2005189A
:1000A0006020851D45285522851954282710861162
:1000B000861008005522061B5B28B10AC0210800E3
:1000C000552205186128C20AD021080086103A0876
:1000D000B3003908B4004008B5003F08B600552207
:1000E0007B2886144308B3004208B4003208B500E8
:1000F0003108B600552205181A2085183F20051929
:1001000030221728831603138501FF308500003045
:1001100087008701003088008801831603130030B0
:100120008600831203138601831603178801890151
:1001300083120313BF01C001AA01AC01BE01A201D9
:10014000A301A401A501B901BA01B101B201C30122
:10015000C201C101A101C501C601BD01BC01AF01C0
:100160002214BB01A601A701A801C801C701CA0149
:10017000C9010130B100C200C1000630BC00080056
:100180008316031381128111011581140114831246
:1001900003130B11F83081000800831203131010B1
:1001A000901210169011901010143C308F00B03047
:1001B0008E000C100800831203137F309200831608
:1001C0000313273092008312031391018C1008004F
:1001D000831203130B118B168B170B178316031344
:1001E0000C148C14831203130C108C1008000F399C
:1001F00082073F3406345B344F3466346D347D34CB
:1002000007347F346F340800820702340234093423
:100210000234013402340134023402340134023431
:1002200001340234820703340334023403340334C8
:100230000334033403340334033403340334033406
:100240000B11F030810022182C292318342924188E
:100250003C29251844290800850188143308F72013
:100260008700221023140800880108143408F7209E
:100270008700231024140800880188153508F7200A
:100280008700241025140800880108153608F72077
:1002900087002214251008003C308F00B0308E00FB
:1002A0000C102618080027180800281808009621A6
:1002B000A121B121C021D021080091018C10AC0AEC
:1002C0002C08323C031D0D28AC013E1C85298829D1
:1002D000281808006C29080003113A083D02031D84
:1002E0006B297229031139083C02031D6B297829F7
:1002F000031140084602031D6B297E2903113F08A4
:100300004502031D6B2921146B293E14061468292C
:100310003E100610682903118617AF0A2F083C3CCF
:10032000031D0800AF018613211008000311AA0A5B
:100330002A080A3C031D0800AA01BF0A21188B21C4
:10034000080003113F080A3C031D0800BF01C00A52
:1003500003114008063C031D0800C001261CB90A11
:1003600008004718E121031139080A3C031D080061
:10037000B901BA0A03113A08023C031947140800EC
:100380004818DB21031131080A3C031D0800B101A4
:10039000B20A03114108122132020319481408005D
:1003A0004918E621031142080A3C031D0800C20156
:1003B000C30A491408004108042131020319FF212E
:1003C00008003908043C0319EB2108004208033CEB
:1003D0000319F5210800261CBF01261CC001B90124
:1003E000BA01C701261CB10A08000130C300C901C7
:1003F000B2010130C200B100C100A00A0800B20180
:10040000C8010130B100271CC20A271CC10A08001C
:10041000031145080A3C031D0800C501C60A031163
:100420004608063C031D0800C60108004A1825229C
:1004300003113C080A3C031D0800BC01BD0A03115E
:100440003D08023C03194A1408003C08043C031907
:100450002A220800C501C601BC01BD01CA0108006D
:1004600055220519312A281406153D08B3003C0809
:10047000B4004608B5004508B6008518492205189D
:100480004F22851D352A55228519442A2810061128
:100490000800552285184A2AC50A08220800552254
:1004A0000518502ABC0A16220800FA30B000B00B1A
:0404B000572A0800BF
:02400E00F4209C
:02401000FF3F70
:00000001FF
