:020000040000FA
:020000000328D3
:040002000034003492
:0A0006008E20AD20B920C520CD20CA
:10001000E920DA200B28112028202E2007183B2861
:100020000B28C1309F005620612056209F149F1836
:1000300017280C131E08A0008600C5309F0056200C
:10004000702056209F149F1823280C131E08A1000F
:1000500020089500562021089B0056208716831201
:10006000031720088D0083168C130C1483120C08C0
:10007000031388000800ED2083120317831603176B
:100080008C184028831220088D00031320080317C2
:100090008C0083168C130C1555308D00AA308D0002
:1000A0008C148B170C11831203130B280000000013
:1000B0000000000000000000000000000000000040
:1000C00008008316031300309F00831203131F17C9
:1000D0009F131F119F111F129F129F101F140800C2
:1000E0008316031300309F00831203131F179F13FF
:1000F0001F159F111F129F129F101F1408008316B7
:10010000031300309F00831203131F179F131F1543
:100110009F111F129F129F101F14080083160317B0
:1001200088018809831603138501850987018312D5
:100130000313850183120313A001A1018316031386
:1001400000308600831203138601831603130030E8
:1001500088008312031388010800031383160F120B
:100160008F160F178F110F118F100F1400309F0073
:10017000080003138312C1309F0012151214921449
:10018000031783169B3092000800031383120C3070
:1001900097000F309D00870108008316031381121A
:1001A0008111011581140110831203133230810073
:1001B0000B110800831603131812981618118715CF
:1001C00019309900831203139817831603178715A4
:1001D00008008B178B160B110800000000000000B0
:1001E0000000000000000000000000000000080007
:02400E00D420BC
:02401000FF3F70
:00000001FF
