:020000040000FA
:020000000328D3
:040002000034003492
:0A000600612080208C20982008283B
:100010000B2023200828C1309F00292034202920CC
:100020009F149F1811280C131E08A0008600C530CD
:100030009F002920432029209F149F181D280C135E
:100040001E08A100880020089500292021089B0097
:100050002920000000000000000000000000000057
:1000600000000000000008008316031300309F000A
:10007000831203131F179F131F119F111F129F122B
:100080009F101F1408008316031300309F00831273
:1000900003131F179F131F159F111F129F129F10ED
:1000A0001F1408008316031300309F0083120313EC
:1000B0001F179F131F159F111F129F129F101F14B0
:1000C0000800831603178801880983160313850126
:1000D0008509870183120313850183120313A0018D
:1000E000A1018316031300308600831203138601D7
:1000F000831603130030880083120313880108005D
:10010000031383160F128F160F178F110F118F10F5
:100110000F1400309F00080003138312C1309F00AA
:10012000121512149214031783169B3092000800C4
:10013000031383120C3097000F309D0087010800D5
:02400E00D420BC
:02401000FF3F70
:00000001FF
