:020000040000FA
:020000000328D3
:040002000034003492
:0A000600192037201F204A20831222
:10001000031361209F149F180B280C131E088600E1
:100020008C1E14281A088800060899000C1E162831
:100030000928831603130F178F120F120800831657
:100040000313181218158316031787158316031345
:10005000193099009A018312031398171813181670
:10006000831603139816831203138801080083165E
:10007000031385018601870188018901831603170F
:100080008801890183120313850186018701880194
:1000900089010800831203139F131F179F121F1259
:1000A0009F111F11831603139F139F121F12831298
:1000B00003131F1483160313051483160317081460
:1000C00008006430A3006720A30B63280800FA30FF
:0800D000A200A20B6928080040
:02400E00D420BC
:02401000FF3F70
:00000001FF
