:020000040000FA
:020000000029D5
:040002000034003492
:080008008B13AA00030EAB00EC
:100010000C1F20200B1916208C181C208C1A4D2028
:100020002B0E8300AA0E2A0E8B170900F8308100D0
:100030000B110E21332108008C100C1A31200800FE
:10004000351C292870211E08B3000C139F1035148D
:10005000080075211E08B20006140C139F143510F9
:1000600008003408033C031949283408023C0319EA
:1000700045283408013C03193D282C309900B40A66
:10008000080033089900B40A080032089900B40A3D
:1000900008000A309900B40108001A08AF000800EF
:1000A0000F3982073F3406345B344F3466346D3485
:1000B0007D3407347F346F3477347C3439345E34A4
:0400C00079347134EA
:100200004821902196219B2163217A218B21072966
:10021000AA219F149F180A291E08A3008510051102
:100220008511051285122E182429AE181D293008B3
:10023000502088008514AE14080031085020880032
:1002400005152E14AE100800AE182C2930085020C9
:1002500088000516AE140800310850208800851665
:100260002E10AE1408002F08B1002F0EB0000800A9
:100270000813230EAC000F302C0550208600881781
:10028000080088130F302305502086000817080047
:100290008312031385018601870188018901831672
:1002A0000317880108148815890183160313093080
:1002B000850086018701880183120313AE01AF0117
:1002C000B301B2010800831603139F0183120313C5
:1002D00083309F009F149F1483120313850108002D
:1002E000831203131F119F110800831203131F11A0
:1002F0009F1108008316031318131812181583167C
:100300000317871183160313193099009A01981661
:100310008312031308008312031398171817181673
:10032000831603136400D73081000800831203137F
:10033000FF3092000800831603138C140C178C16E0
:100340000C160B170B1514309200831203138B1726
:100350000B11080000000000000000000000000079
:0A036000000000000000000008008B
:02400E00D420BC
:02401000FF3F70
:00000001FF
