:020000040000FA
:020000002628B0
:040002000034003492
:08000800A000030EA100831209
:1000100003130B1183120313F0308100AC0B15286E
:100020000230880622147A30AC00210E8300A00E24
:10003000200E09000F3982073F3406345B344F34F9
:0C00400066346D347D3407347F346F3437
:04004C00A420C92003
:10005000C420DC20BB20831203132E2822186D201D
:10006000A2186D203C202E282210AA0B3828A2149A
:1000700008001430AA00080041204C2057206220BC
:1000800008008901870126081A20831203138500BE
:100090000914E520091008008901870127081A20A2
:1000A0008312031385008914E52089100800870155
:1000B000890128081A208312031385008714E5207C
:1000C000871008008701890129081A208312031369
:1000D00085000714E520071008002210A60A031166
:1000E00026080A3C0319752008000030A600A70A5C
:1000F00003112708063C03197E2008000030A600E3
:10010000A700A80A031128080A3C03198820080040
:100110000030A600A700A800A90A03112908033C83
:100120000319A90103112908023C031998200800AA
:1001300003112808043C03199E2008000030A60083
:10014000A700A800A90008008316031789018801E9
:10015000831603138501870188018901F830860021
:1001600083120313850187018801A601A701A80155
:10017000A901AA0108000530A6000430A700033039
:10018000A8000130A90008008316031361308F0016
:1001900008008316031381128111011581140114C3
:1001A00083120313F03081000B117A30AC0014304D
:1001B000AA000030AB0008008B160B118B1708004B
:1001C000FF30A300A30BE2280800FF30A400E028C2
:0601D000A40BE728080063
:02400E00D420BC
:02401000FF3F70
:00000001FF
