:020000040000FA
:020000002728AF
:040002000034003492
:08000800A600030EA7000B1D6A
:1000100010283C3081000B11A50AA40AA10B031D76
:10002000270E8300A60E260E09000F3982073F34E3
:1000300006345B344F3466346D347D3407347F349A
:0E0040006F3477347C3439345E347934713463
:02004E00831617
:1000500003137020912067200230A2002F2858201F
:10006000602051204820392023080602031941202E
:100070002F2825080A3C03193E200800860AA501FE
:1000800008008516A401241C432886018512080057
:100090000810220EA8000F302805152087008814AC
:1000A000080088100F30220515208700081408006A
:1000B00083120313051C080005185C28A20A080017
:1000C00083120313851C85186328A20308008B176D
:1000D0008B160B150800FA30A000A00B6D28080045
:1000E00083160313033085008312031385018316DF
:1000F00003178801890183160313003086008312D9
:100100000313860183160313003087008312031341
:1001100087018316031300308800831203138801BC
:100120000800831603138112811101158114011433
:0C013000831203133C3081000B11080007
:02400E00D420BC
:02401000FF3F70
:00000001FF
