:020000040000FA
:020000000029D5
:040002000034003492
:08000800A900030EAA000B1D64
:100010000F283C3081000B11A30B031D0F282A0E63
:100020008300A90E290E09000F3982073F340634D8
:100030005B344F3466346D347D3407347F346F3431
:0C00400077347C3439345E347934713408
:10020000831603134D2171217E2106290A214621DF
:100210003D21062982219F149F180C291E08A60043
:100220001121F5302602031C18290530A100080011
:10023000CC302602031C1F290430A100080099308D
:100240002602031C26290330A1000800663026027E
:10025000031C2D290230A100080033302602031CA4
:1002600034290130A10008000A302602031C3B2972
:100270000030A1000800880108000813210EAB001F
:100280000F302B05142086008817080088130F30C4
:100290002105142086000817080083160313003078
:1002A0009F00831603130514831603170814831283
:1002B000031341309F00831603130030860083121E
:1002C0000313860183160313003087008312031380
:1002D00087018316031300308800831203138801FB
:1002E0000800831603138112811101158114011076
:1002F00083120313323081000B1108008B178B1609
:100300000B110800000000000000000000000000C9
:0A03100000000000000000000800DB
:02400E00D420BC
:02401000FF3F70
:00000001FF
