:020000040000FA
:020000000029D5
:040002000034003492
:080008008B13A000030EA10000
:100010008C1824200C181C200B1D0F281520210ED5
:100020008300A00E200E8B1709000B1D0F28063031
:1000300081000B1199210800CF308F0026308E00EF
:100040000C10A80AA90A080091018C10AB0A08003C
:100050000F3982073F3406345B344F3466346D34D5
:080060007D3407347F346F3456
:10020000BF2171217E218C21632183120313A80158
:10021000A901AA01AB01A401B001AF01B201B10172
:1002200018212021282137213F214721562110293B
:1002300028080A3C03191D290800B00AA801080073
:1002400029080A3C031925290800A50AA901080064
:1002500030080A3C03192D210800AF0AB0012F080D
:10026000063C031934210800B001AF0108002A0838
:100270000A3C03193C290800B20AAA0108002B080D
:100280000A3C031944290800A60AAB0108003208F9
:100290000A3C03194C210800B10AB2013108063C9E
:1002A000031953210800B201B101080006102518F6
:1002B0005B2906105D2906145D29251C612925147A
:1002C0000800251008008B178B160B1183160313DB
:1002D0000C148C14831203138B170B170C108C1037
:1002E000080083160313811281110111811401107A
:1002F00083120313063081000B11080083120313CD
:10030000101390161016901190101014CF308F000B
:1003100026308E000C10080083120313E730920081
:1003200083160313F13092008312031391018C1092
:10033000080008108810081188112218A4292F0815
:10034000282087008814A92930082820870008144D
:10035000A929221CAD292210080022140800310806
:10036000282087000815A929320828208700881529
:10037000B929231CBD292310080023140800831663
:1003800003131F308500831203138501831603179F
:10039000880189018316031300308600831203133A
:1003A000860183160313003087008312031387012D
:1003B000831603130030880083120313880108009A
:1003C0008316031300308900831203138901080088
:02400E00D420BC
:02401000FF3F70
:00000001FF
