:020000040000FA
:020000000029D5
:040002000034003492
:08000800A800030EA9000B1D66
:100010000F283C3081000B11A30B031D0F28290E64
:100020008300A80E280E09000F3982073F340634DA
:100030005B344F3466346D347D3407347F346F3431
:0C00400077347C3439345E347934713408
:10020000831603135F2149216F217C2107290E21C9
:1002100034212D2126211D213B2107299F149F18C0
:100220000F291E08AC001F15802108009F149F187D
:100230001E08AD081F128021080008132C0EAA000A
:100240000F302A05142086008817080088130F3005
:100250002C05142086000817080008120F302D0501
:10026000142086008816080088120F302D051420EF
:1002700086000816080083161F30990018121811FE
:10028000181398168C1683129817181618138C12B8
:1002900008008316031300308600831203138601BF
:1002A000831603130030870083120313870183161C
:1002B000031300308800831203138801080083129F
:1002C00003139F131F179F121F129F111F118316D5
:1002D00003139F139F121F12831203131F148316FD
:1002E000031381128111011581140110831203136C
:1002F000323081000B1108008B178B160B11080090
:1003000000000000000000000000000000000000ED
:06031000000000000800DF
:02400E00D420BC
:02401000FF3F70
:00000001FF
