:020000040000FA
:020000000328D3
:040002000034003492
:0A00060050206F207B20872008287F
:10001000C1309F002720322027209F149F180E28D0
:100020000C131E08A0008600C5309F002720412029
:1000300027209F149F181A280C131E08A10088005F
:1000400020089500272021089B0027200828000071
:1000500000000000000000000000000000000000A0
:10006000000008008316031300309F00831203135F
:100070001F179F131F119F111F129F129F101F14F4
:1000800008008316031300309F00831203131F1709
:100090009F131F159F111F129F129F101F140800FE
:1000A00083160317880188098316031385018509C0
:1000B000870183120313850183120313A001A10199
:1000C0008316031300308600831203138601831600
:1000D0000313003088008312031388010800031300
:1000E00083160F128F160F178F110F118F100F1409
:1000F00000309F00080003138312C1309F001215C7
:1001000012149214031783169B30920008000313F5
:0E01100083120C3097000F309D00870108000D
:02400E00D420BC
:02401000FF3F70
:00000001FF
